{
  "_format": "hh-sol-artifact-1",
  "contractName": "VRFV2ProviderMock",
  "sourceName": "contracts/test/VRFV2ProviderMock.sol",
  "abi": [
    {
      "inputs": [
        {
          "internalType": "uint64",
          "name": "_subscriptionId",
          "type": "uint64"
        }
      ],
      "stateMutability": "nonpayable",
      "type": "constructor"
    },
    {
      "anonymous": false,
      "inputs": [
        {
          "indexed": true,
          "internalType": "address",
          "name": "from",
          "type": "address"
        },
        {
          "indexed": true,
          "internalType": "address",
          "name": "to",
          "type": "address"
        }
      ],
      "name": "OwnershipTransferRequested",
      "type": "event"
    },
    {
      "anonymous": false,
      "inputs": [
        {
          "indexed": true,
          "internalType": "address",
          "name": "from",
          "type": "address"
        },
        {
          "indexed": true,
          "internalType": "address",
          "name": "to",
          "type": "address"
        }
      ],
      "name": "OwnershipTransferred",
      "type": "event"
    },
    {
      "anonymous": false,
      "inputs": [
        {
          "indexed": false,
          "internalType": "uint256",
          "name": "requestId",
          "type": "uint256"
        }
      ],
      "name": "RequestFailedByGasLimit",
      "type": "event"
    },
    {
      "anonymous": false,
      "inputs": [
        {
          "indexed": false,
          "internalType": "uint256",
          "name": "requestId",
          "type": "uint256"
        },
        {
          "indexed": false,
          "internalType": "uint256[]",
          "name": "randomWords",
          "type": "uint256[]"
        }
      ],
      "name": "RequestFulfilled",
      "type": "event"
    },
    {
      "anonymous": false,
      "inputs": [
        {
          "indexed": false,
          "internalType": "uint256",
          "name": "requestId",
          "type": "uint256"
        },
        {
          "indexed": false,
          "internalType": "uint32",
          "name": "numWords",
          "type": "uint32"
        }
      ],
      "name": "RequestSent",
      "type": "event"
    },
    {
      "inputs": [],
      "name": "acceptOwnership",
      "outputs": [],
      "stateMutability": "nonpayable",
      "type": "function"
    },
    {
      "inputs": [
        {
          "internalType": "address",
          "name": "account",
          "type": "address"
        }
      ],
      "name": "addToAllowList",
      "outputs": [],
      "stateMutability": "nonpayable",
      "type": "function"
    },
    {
      "inputs": [],
      "name": "lastRequestId",
      "outputs": [
        {
          "internalType": "uint256",
          "name": "",
          "type": "uint256"
        }
      ],
      "stateMutability": "view",
      "type": "function"
    },
    {
      "inputs": [],
      "name": "owner",
      "outputs": [
        {
          "internalType": "address",
          "name": "",
          "type": "address"
        }
      ],
      "stateMutability": "view",
      "type": "function"
    },
    {
      "inputs": [
        {
          "internalType": "address",
          "name": "account",
          "type": "address"
        }
      ],
      "name": "removeFromAllowList",
      "outputs": [],
      "stateMutability": "nonpayable",
      "type": "function"
    },
    {
      "inputs": [
        {
          "internalType": "uint256",
          "name": "",
          "type": "uint256"
        }
      ],
      "name": "requestIds",
      "outputs": [
        {
          "internalType": "uint256",
          "name": "",
          "type": "uint256"
        }
      ],
      "stateMutability": "view",
      "type": "function"
    },
    {
      "inputs": [
        {
          "internalType": "uint256",
          "name": "callerRequestId",
          "type": "uint256"
        }
      ],
      "name": "requestRandomWords",
      "outputs": [
        {
          "internalType": "uint256",
          "name": "requestId",
          "type": "uint256"
        }
      ],
      "stateMutability": "nonpayable",
      "type": "function"
    },
    {
      "inputs": [
        {
          "internalType": "uint256",
          "name": "",
          "type": "uint256"
        }
      ],
      "name": "s_requests",
      "outputs": [
        {
          "internalType": "bool",
          "name": "fulfilled",
          "type": "bool"
        },
        {
          "internalType": "bool",
          "name": "exists",
          "type": "bool"
        }
      ],
      "stateMutability": "view",
      "type": "function"
    },
    {
      "inputs": [
        {
          "internalType": "address",
          "name": "to",
          "type": "address"
        }
      ],
      "name": "transferOwnership",
      "outputs": [],
      "stateMutability": "nonpayable",
      "type": "function"
    }
  ],
  "bytecode": "0x608060405260018060146101000a81548163ffffffff021916908363ffffffff16021790555060405180602001604052807fada6759e0857cc07c90201e9addae33bc69d44339efb9b93b9c9079255c72413815250600290600162000066929190620002f8565b503480156200007457600080fd5b5060405162001a9c38038062001a9c83398181016040528101906200009a9190620003b3565b338060008073ffffffffffffffffffffffffffffffffffffffff168273ffffffffffffffffffffffffffffffffffffffff16036200010f576040517f08c379a0000000000000000000000000000000000000000000000000000000008152600401620001069062000446565b60405180910390fd5b816000806101000a81548173ffffffffffffffffffffffffffffffffffffffff021916908373ffffffffffffffffffffffffffffffffffffffff160217905550600073ffffffffffffffffffffffffffffffffffffffff168173ffffffffffffffffffffffffffffffffffffffff161462000196576200019581620001c960201b60201c565b5b50505080600360006101000a81548167ffffffffffffffff021916908367ffffffffffffffff16021790555050620004da565b3373ffffffffffffffffffffffffffffffffffffffff168173ffffffffffffffffffffffffffffffffffffffff16036200023a576040517f08c379a00000000000000000000000000000000000000000000000000000000081526004016200023190620004b8565b60405180910390fd5b80600160006101000a81548173ffffffffffffffffffffffffffffffffffffffff021916908373ffffffffffffffffffffffffffffffffffffffff1602179055508073ffffffffffffffffffffffffffffffffffffffff1660008054906101000a900473ffffffffffffffffffffffffffffffffffffffff1673ffffffffffffffffffffffffffffffffffffffff167fed8889f560326eb138920d842192f0eb3dd22b4f139c87a2c57538e05bae127860405160405180910390a350565b82805482825590600052602060002090810192821562000337579160200282015b828111156200033657825182559160200191906001019062000319565b5b5090506200034691906200034a565b5090565b5b80821115620003655760008160009055506001016200034b565b5090565b600080fd5b600067ffffffffffffffff82169050919050565b6200038d816200036e565b81146200039957600080fd5b50565b600081519050620003ad8162000382565b92915050565b600060208284031215620003cc57620003cb62000369565b5b6000620003dc848285016200039c565b91505092915050565b600082825260208201905092915050565b7f43616e6e6f7420736574206f776e657220746f207a65726f0000000000000000600082015250565b60006200042e601883620003e5565b91506200043b82620003f6565b602082019050919050565b6000602082019050818103600083015262000461816200041f565b9050919050565b7f43616e6e6f74207472616e7366657220746f2073656c66000000000000000000600082015250565b6000620004a0601783620003e5565b9150620004ad8262000468565b602082019050919050565b60006020820190508181036000830152620004d38162000491565b9050919050565b6115b280620004ea6000396000f3fe608060405234801561001057600080fd5b50600436106100935760003560e01c8063a168fa8911610066578063a168fa891461010c578063bc85777c1461013d578063eba8dabc1461016d578063f2fde38b14610189578063fc2a88c3146101a557610093565b806331f591021461009857806379ba5097146100b45780638796ba8c146100be5780638da5cb5b146100ee575b600080fd5b6100b260048036038101906100ad9190610ed6565b6101c3565b005b6100bc610226565b005b6100d860048036038101906100d39190610f39565b6103bb565b6040516100e59190610f75565b60405180910390f35b6100f66103df565b6040516101039190610f9f565b60405180910390f35b61012660048036038101906101219190610f39565b610408565b604051610134929190610fd5565b60405180910390f35b61015760048036038101906101529190610f39565b610446565b6040516101649190610f75565b60405180910390f35b61018760048036038101906101829190610ed6565b61072c565b005b6101a3600480360381019061019e9190610ed6565b61078f565b005b6101ad6107a3565b6040516101ba9190610f75565b60405180910390f35b6101cb6107a9565b6001600560008373ffffffffffffffffffffffffffffffffffffffff1673ffffffffffffffffffffffffffffffffffffffff16815260200190815260200160002060006101000a81548160ff02191690831515021790555050565b600160009054906101000a900473ffffffffffffffffffffffffffffffffffffffff1673ffffffffffffffffffffffffffffffffffffffff163373ffffffffffffffffffffffffffffffffffffffff16146102b6576040517f08c379a00000000000000000000000000000000000000000000000000000000081526004016102ad9061105b565b60405180910390fd5b60008060009054906101000a900473ffffffffffffffffffffffffffffffffffffffff169050336000806101000a81548173ffffffffffffffffffffffffffffffffffffffff021916908373ffffffffffffffffffffffffffffffffffffffff1602179055506000600160006101000a81548173ffffffffffffffffffffffffffffffffffffffff021916908373ffffffffffffffffffffffffffffffffffffffff1602179055503373ffffffffffffffffffffffffffffffffffffffff168173ffffffffffffffffffffffffffffffffffffffff167f8be0079c531659141344cd1fd0a4f28419497f9722a3daafe3b4186f6b6457e060405160405180910390a350565b600781815481106103cb57600080fd5b906000526020600020016000915090505481565b60008060009054906101000a900473ffffffffffffffffffffffffffffffffffffffff16905090565b60066020528060005260406000206000915090508060000160009054906101000a900460ff16908060000160019054906101000a900460ff16905082565b60006104506103df565b73ffffffffffffffffffffffffffffffffffffffff163373ffffffffffffffffffffffffffffffffffffffff1614806104d9575060011515600560003373ffffffffffffffffffffffffffffffffffffffff1673ffffffffffffffffffffffffffffffffffffffff16815260200190815260200160002060009054906101000a900460ff161515145b610518576040517f08c379a000000000000000000000000000000000000000000000000000000000815260040161050f906110c7565b60405180910390fd5b6040518060600160405280600015158152602001600115158152602001600067ffffffffffffffff8111156105505761054f6110e7565b5b60405190808252806020026020018201604052801561057e5781602001602082028036833780820191505090505b508152506006600083815260200190815260200160002060008201518160000160006101000a81548160ff02191690831515021790555060208201518160000160016101000a81548160ff02191690831515021790555060408201518160010190805190602001906105f1929190610dad565b50905050600781908060018154018082558091505060019003906000526020600020016000909190919091505580600881905550336004600083815260200190815260200160002060000160006101000a81548173ffffffffffffffffffffffffffffffffffffffff021916908373ffffffffffffffffffffffffffffffffffffffff1602179055508160046000838152602001908152602001600020600101819055507fcc58b13ad3eab50626c6a6300b1d139cd6ebb1688a7cced9461c2f7e762665ee81600160149054906101000a900463ffffffff166040516106d8929190611135565b60405180910390a161071e6040518060400160405280601981526020017f7265717565737452616e646f6d576f7264732063616c6c656400000000000000815250610839565b610727816108d2565b919050565b6107346107a9565b6000600560008373ffffffffffffffffffffffffffffffffffffffff1673ffffffffffffffffffffffffffffffffffffffff16815260200190815260200160002060006101000a81548160ff02191690831515021790555050565b6107976107a9565b6107a081610b9f565b50565b60085481565b60008054906101000a900473ffffffffffffffffffffffffffffffffffffffff1673ffffffffffffffffffffffffffffffffffffffff163373ffffffffffffffffffffffffffffffffffffffff1614610837576040517f08c379a000000000000000000000000000000000000000000000000000000000815260040161082e906111aa565b60405180910390fd5b565b6108cf8160405160240161084d9190611249565b6040516020818303038152906040527f41304fac000000000000000000000000000000000000000000000000000000007bffffffffffffffffffffffffffffffffffffffffffffffffffffffff19166020820180517bffffffffffffffffffffffffffffffffffffffffffffffffffffffff8381831617835250505050610ccb565b50565b6006600082815260200190815260200160002060000160019054906101000a900460ff16610935576040517f08c379a000000000000000000000000000000000000000000000000000000000815260040161092c906112b7565b60405180910390fd5b60016006600083815260200190815260200160002060000160006101000a81548160ff02191690831515021790555060026006600083815260200190815260200160002060010190805461098a929190610dfa565b506109e06040518060400160405280601d81526020017f66756c66696c6c52616e646f6d576f7264732063616c6c65643a2025730000008152506004600084815260200190815260200160002060010154610ce5565b600560006004600084815260200190815260200160002060000160009054906101000a900473ffffffffffffffffffffffffffffffffffffffff1673ffffffffffffffffffffffffffffffffffffffff1673ffffffffffffffffffffffffffffffffffffffff16815260200190815260200160002060009054906101000a900460ff16610aa2576040517f08c379a0000000000000000000000000000000000000000000000000000000008152600401610a9990611323565b60405180910390fd5b60006004600083815260200190815260200160002060000160009054906101000a900473ffffffffffffffffffffffffffffffffffffffff1690508073ffffffffffffffffffffffffffffffffffffffff1663dbae173b600260046000868152602001908152602001600020600101546040518363ffffffff1660e01b8152600401610b2f929190611451565b600060405180830381600087803b158015610b4957600080fd5b505af1158015610b5d573d6000803e3d6000fd5b505050507ffe2e2d779dba245964d4e3ef9b994be63856fd568bf7d3ca9e224755cb1bd54d826002604051610b93929190611481565b60405180910390a15050565b3373ffffffffffffffffffffffffffffffffffffffff168173ffffffffffffffffffffffffffffffffffffffff1603610c0d576040517f08c379a0000000000000000000000000000000000000000000000000000000008152600401610c04906114fd565b60405180910390fd5b80600160006101000a81548173ffffffffffffffffffffffffffffffffffffffff021916908373ffffffffffffffffffffffffffffffffffffffff1602179055508073ffffffffffffffffffffffffffffffffffffffff1660008054906101000a900473ffffffffffffffffffffffffffffffffffffffff1673ffffffffffffffffffffffffffffffffffffffff167fed8889f560326eb138920d842192f0eb3dd22b4f139c87a2c57538e05bae127860405160405180910390a350565b610ce281610cda610d81610da2565b63ffffffff16565b50565b610d7d8282604051602401610cfb92919061151d565b6040516020818303038152906040527fb60e72cc000000000000000000000000000000000000000000000000000000007bffffffffffffffffffffffffffffffffffffffffffffffffffffffff19166020820180517bffffffffffffffffffffffffffffffffffffffffffffffffffffffff8381831617835250505050610ccb565b5050565b60006a636f6e736f6c652e6c6f679050600080835160208501845afa505050565b610e4c819050919050565b828054828255906000526020600020908101928215610de9579160200282015b82811115610de8578251825591602001919060010190610dcd565b5b509050610df69190610e56565b5090565b828054828255906000526020600020908101928215610e3b5760005260206000209182015b82811115610e3a578254825591600101919060010190610e1f565b5b509050610e489190610e56565b5090565b610e5461154d565b565b5b80821115610e6f576000816000905550600101610e57565b5090565b600080fd5b600073ffffffffffffffffffffffffffffffffffffffff82169050919050565b6000610ea382610e78565b9050919050565b610eb381610e98565b8114610ebe57600080fd5b50565b600081359050610ed081610eaa565b92915050565b600060208284031215610eec57610eeb610e73565b5b6000610efa84828501610ec1565b91505092915050565b6000819050919050565b610f1681610f03565b8114610f2157600080fd5b50565b600081359050610f3381610f0d565b92915050565b600060208284031215610f4f57610f4e610e73565b5b6000610f5d84828501610f24565b91505092915050565b610f6f81610f03565b82525050565b6000602082019050610f8a6000830184610f66565b92915050565b610f9981610e98565b82525050565b6000602082019050610fb46000830184610f90565b92915050565b60008115159050919050565b610fcf81610fba565b82525050565b6000604082019050610fea6000830185610fc6565b610ff76020830184610fc6565b9392505050565b600082825260208201905092915050565b7f4d7573742062652070726f706f736564206f776e657200000000000000000000600082015250565b6000611045601683610ffe565b91506110508261100f565b602082019050919050565b6000602082019050818103600083015261107481611038565b9050919050565b7f43616c6c6572206973206e6f7420617574686f72697a65640000000000000000600082015250565b60006110b1601883610ffe565b91506110bc8261107b565b602082019050919050565b600060208201905081810360008301526110e0816110a4565b9050919050565b7f4e487b7100000000000000000000000000000000000000000000000000000000600052604160045260246000fd5b600063ffffffff82169050919050565b61112f81611116565b82525050565b600060408201905061114a6000830185610f66565b6111576020830184611126565b9392505050565b7f4f6e6c792063616c6c61626c65206279206f776e657200000000000000000000600082015250565b6000611194601683610ffe565b915061119f8261115e565b602082019050919050565b600060208201905081810360008301526111c381611187565b9050919050565b600081519050919050565b60005b838110156111f35780820151818401526020810190506111d8565b60008484015250505050565b6000601f19601f8301169050919050565b600061121b826111ca565b6112258185610ffe565b93506112358185602086016111d5565b61123e816111ff565b840191505092915050565b600060208201905081810360008301526112638184611210565b905092915050565b7f72657175657374206e6f7420666f756e64000000000000000000000000000000600082015250565b60006112a1601183610ffe565b91506112ac8261126b565b602082019050919050565b600060208201905081810360008301526112d081611294565b9050919050565b7f6163636f756e74206e6f7420616c6c6f77656400000000000000000000000000600082015250565b600061130d601383610ffe565b9150611318826112d7565b602082019050919050565b6000602082019050818103600083015261133c81611300565b9050919050565b600081549050919050565b600082825260208201905092915050565b60008190508160005260206000209050919050565b61137d81610f03565b82525050565b600061138f8383611374565b60208301905092915050565b60008160001c9050919050565b6000819050919050565b60006113c56113c08361139b565b6113a8565b9050919050565b60006113d882546113b2565b9050919050565b6000600182019050919050565b60006113f782611343565b611401818561134e565b935061140c8361135f565b8060005b8381101561144457611421826113cc565b61142b8882611383565b9750611436836113df565b925050600181019050611410565b5085935050505092915050565b6000604082019050818103600083015261146b81856113ec565b905061147a6020830184610f66565b9392505050565b60006040820190506114966000830185610f66565b81810360208301526114a881846113ec565b90509392505050565b7f43616e6e6f74207472616e7366657220746f2073656c66000000000000000000600082015250565b60006114e7601783610ffe565b91506114f2826114b1565b602082019050919050565b60006020820190508181036000830152611516816114da565b9050919050565b600060408201905081810360008301526115378185611210565b90506115466020830184610f66565b9392505050565b7f4e487b7100000000000000000000000000000000000000000000000000000000600052605160045260246000fdfea2646970667358221220d00c35715ca0326b9fa0af433b93e7eae06a6c99f23a9fcbb0e611b76731a29164736f6c63430008140033",
  "linkReferences": {},
  "deployedLinkReferences": {}
}