{
  "_format": "hh-sol-artifact-1",
  "contractName": "Lottery",
  "sourceName": "contracts/Lottery.sol",
  "abi": [
    {
      "inputs": [
        {
          "internalType": "address",
          "name": "_VRFV2Provider",
          "type": "address"
        }
      ],
      "stateMutability": "payable",
      "type": "constructor"
    },
    {
      "anonymous": false,
      "inputs": [
        {
          "indexed": false,
          "internalType": "string",
          "name": "message",
          "type": "string"
        }
      ],
      "name": "LogMessage",
      "type": "event"
    },
    {
      "anonymous": false,
      "inputs": [
        {
          "indexed": true,
          "internalType": "uint256",
          "name": "id",
          "type": "uint256"
        },
        {
          "indexed": true,
          "internalType": "address",
          "name": "owner",
          "type": "address"
        },
        {
          "indexed": false,
          "internalType": "uint256",
          "name": "startTime",
          "type": "uint256"
        },
        {
          "indexed": false,
          "internalType": "uint256",
          "name": "closeTime",
          "type": "uint256"
        }
      ],
      "name": "emitLotteryCreated",
      "type": "event"
    },
    {
      "anonymous": false,
      "inputs": [
        {
          "indexed": true,
          "internalType": "uint256",
          "name": "id",
          "type": "uint256"
        },
        {
          "indexed": true,
          "internalType": "address",
          "name": "joinerAddress",
          "type": "address"
        }
      ],
      "name": "emitLotteryJoined",
      "type": "event"
    },
    {
      "anonymous": false,
      "inputs": [
        {
          "indexed": false,
          "internalType": "uint256",
          "name": "id",
          "type": "uint256"
        }
      ],
      "name": "emitRequestedRandomNumber",
      "type": "event"
    },
    {
      "anonymous": false,
      "inputs": [],
      "name": "vrfFailedByGasLimit",
      "type": "event"
    },
    {
      "inputs": [
        {
          "internalType": "uint256",
          "name": "lotteryId",
          "type": "uint256"
        }
      ],
      "name": "checkIfIWonTheLottery",
      "outputs": [
        {
          "internalType": "bool",
          "name": "",
          "type": "bool"
        }
      ],
      "stateMutability": "view",
      "type": "function"
    },
    {
      "inputs": [
        {
          "internalType": "uint256",
          "name": "lotteryId",
          "type": "uint256"
        }
      ],
      "name": "checkIfLotteryIsLiveById",
      "outputs": [
        {
          "internalType": "bool",
          "name": "",
          "type": "bool"
        }
      ],
      "stateMutability": "view",
      "type": "function"
    },
    {
      "inputs": [
        {
          "internalType": "uint256",
          "name": "lotteryId",
          "type": "uint256"
        }
      ],
      "name": "checkLotteryPrize",
      "outputs": [
        {
          "internalType": "uint256",
          "name": "",
          "type": "uint256"
        }
      ],
      "stateMutability": "view",
      "type": "function"
    },
    {
      "inputs": [
        {
          "internalType": "uint256",
          "name": "startTimeInSeconds",
          "type": "uint256"
        },
        {
          "internalType": "uint256",
          "name": "endTimeInSeconds",
          "type": "uint256"
        },
        {
          "internalType": "uint256",
          "name": "limitOfJoiners",
          "type": "uint256"
        },
        {
          "internalType": "string",
          "name": "chainType",
          "type": "string"
        }
      ],
      "name": "createNewLottery",
      "outputs": [
        {
          "internalType": "bool",
          "name": "",
          "type": "bool"
        }
      ],
      "stateMutability": "payable",
      "type": "function"
    },
    {
      "inputs": [],
      "name": "getAllFunds",
      "outputs": [],
      "stateMutability": "payable",
      "type": "function"
    },
    {
      "inputs": [],
      "name": "getContractBalance",
      "outputs": [
        {
          "internalType": "uint256",
          "name": "",
          "type": "uint256"
        }
      ],
      "stateMutability": "view",
      "type": "function"
    },
    {
      "inputs": [],
      "name": "getLotteries",
      "outputs": [
        {
          "components": [
            {
              "internalType": "uint256",
              "name": "id",
              "type": "uint256"
            },
            {
              "internalType": "uint256",
              "name": "winningPrize",
              "type": "uint256"
            },
            {
              "internalType": "uint256",
              "name": "startTime",
              "type": "uint256"
            },
            {
              "internalType": "uint256",
              "name": "closeTime",
              "type": "uint256"
            },
            {
              "internalType": "uint256",
              "name": "joinedCounter",
              "type": "uint256"
            },
            {
              "internalType": "string",
              "name": "chainType",
              "type": "string"
            }
          ],
          "internalType": "struct Lottery.LottryContestLite[]",
          "name": "",
          "type": "tuple[]"
        }
      ],
      "stateMutability": "view",
      "type": "function"
    },
    {
      "inputs": [
        {
          "internalType": "uint256",
          "name": "lotteryId",
          "type": "uint256"
        }
      ],
      "name": "getLotteryPrize",
      "outputs": [],
      "stateMutability": "payable",
      "type": "function"
    },
    {
      "inputs": [
        {
          "internalType": "uint256",
          "name": "lotteryId",
          "type": "uint256"
        }
      ],
      "name": "getNumberOfJoinersForLotteryId",
      "outputs": [
        {
          "internalType": "uint256",
          "name": "",
          "type": "uint256"
        }
      ],
      "stateMutability": "view",
      "type": "function"
    },
    {
      "inputs": [
        {
          "internalType": "uint256",
          "name": "lotteryId",
          "type": "uint256"
        }
      ],
      "name": "getUserTicketForLottery",
      "outputs": [
        {
          "components": [
            {
              "internalType": "address",
              "name": "owner",
              "type": "address"
            },
            {
              "internalType": "uint256",
              "name": "lotteryId",
              "type": "uint256"
            },
            {
              "internalType": "uint256",
              "name": "number",
              "type": "uint256"
            }
          ],
          "internalType": "struct Lottery.LotteryTicket",
          "name": "",
          "type": "tuple"
        }
      ],
      "stateMutability": "view",
      "type": "function"
    },
    {
      "inputs": [],
      "name": "getUserTickets",
      "outputs": [
        {
          "internalType": "uint256[]",
          "name": "",
          "type": "uint256[]"
        }
      ],
      "stateMutability": "view",
      "type": "function"
    },
    {
      "inputs": [
        {
          "internalType": "uint256",
          "name": "id",
          "type": "uint256"
        }
      ],
      "name": "getWinningNumberForLottery",
      "outputs": [],
      "stateMutability": "nonpayable",
      "type": "function"
    },
    {
      "inputs": [
        {
          "internalType": "uint256",
          "name": "lotteryId",
          "type": "uint256"
        },
        {
          "internalType": "string",
          "name": "number",
          "type": "string"
        }
      ],
      "name": "joinLottery",
      "outputs": [
        {
          "components": [
            {
              "internalType": "address",
              "name": "owner",
              "type": "address"
            },
            {
              "internalType": "uint256",
              "name": "lotteryId",
              "type": "uint256"
            },
            {
              "internalType": "uint256",
              "name": "number",
              "type": "uint256"
            }
          ],
          "internalType": "struct Lottery.LotteryTicket",
          "name": "",
          "type": "tuple"
        }
      ],
      "stateMutability": "payable",
      "type": "function"
    },
    {
      "inputs": [
        {
          "internalType": "uint256[]",
          "name": "_randomNumbers",
          "type": "uint256[]"
        },
        {
          "internalType": "uint256",
          "name": "id",
          "type": "uint256"
        }
      ],
      "name": "vrfCallback",
      "outputs": [],
      "stateMutability": "nonpayable",
      "type": "function"
    }
  ],
  "bytecode": "0x608060405260008055604051620034943803806200349483398181016040528101906200002d919062000120565b33600160006101000a81548173ffffffffffffffffffffffffffffffffffffffff021916908373ffffffffffffffffffffffffffffffffffffffff16021790555080600260006101000a81548173ffffffffffffffffffffffffffffffffffffffff021916908373ffffffffffffffffffffffffffffffffffffffff1602179055505062000152565b600080fd5b600073ffffffffffffffffffffffffffffffffffffffff82169050919050565b6000620000e882620000bb565b9050919050565b620000fa81620000db565b81146200010657600080fd5b50565b6000815190506200011a81620000ef565b92915050565b600060208284031215620001395762000138620000b6565b5b6000620001498482850162000109565b91505092915050565b61333280620001626000396000f3fe6080604052600436106100dd5760003560e01c80636f9fb98a1161007f578063dbae173b11610059578063dbae173b146102ad578063e8c1bbc9146102d6578063f33ce325146102ff578063f9aa060a1461033c576100dd565b80636f9fb98a1461021a57806389c6fc0b14610245578063bcc82ec414610282576100dd565b80631d0de628116100bb5780631d0de628146101335780632ce9a5d2146101635780633063bcd3146101a05780634b47195d146101dd576100dd565b8063093c69ae146100e25780631923f7fe1461010d5780631c69b46414610129575b600080fd5b3480156100ee57600080fd5b506100f761036c565b6040516101049190611f02565b60405180910390f35b61012760048036038101906101229190611f64565b610404565b005b6101316105ad565b005b61014d600480360381019061014891906120d7565b610686565b60405161015a91906121b6565b60405180910390f35b34801561016f57600080fd5b5061018a60048036038101906101859190611f64565b610a0a565b60405161019791906121ec565b60405180910390f35b3480156101ac57600080fd5b506101c760048036038101906101c29190611f64565b610c28565b6040516101d491906121b6565b60405180910390f35b3480156101e957600080fd5b5061020460048036038101906101ff9190611f64565b610cff565b6040516102119190612216565b60405180910390f35b34801561022657600080fd5b5061022f610d1b565b60405161023c9190612216565b60405180910390f35b34801561025157600080fd5b5061026c60048036038101906102679190611f64565b610d23565b60405161027991906121ec565b60405180910390f35b34801561028e57600080fd5b50610297610ddf565b6040516102a491906123fb565b60405180910390f35b3480156102b957600080fd5b506102d460048036038101906102cf91906124e5565b61101a565b005b3480156102e257600080fd5b506102fd60048036038101906102f89190611f64565b6111fc565b005b34801561030b57600080fd5b5061032660048036038101906103219190611f64565b6112b9565b6040516103339190612216565b60405180910390f35b61035660048036038101906103519190612541565b611372565b60405161036391906121ec565b60405180910390f35b6060600360003373ffffffffffffffffffffffffffffffffffffffff1673ffffffffffffffffffffffffffffffffffffffff1681526020019081526020016000206001018054806020026020016040519081016040528092919081815260200182805480156103fa57602002820191906000526020600020905b8154815260200190600101908083116103e6575b5050505050905090565b806000805b60048054905081101561045e57826004828154811061042b5761042a6125c4565b5b90600052602060002090600a0201600001540361044b576001915061045e565b808061045690612622565b915050610409565b508061049f576040517f08c379a0000000000000000000000000000000000000000000000000000000008152600401610496906126c7565b60405180910390fd5b60006104aa84611601565b90506104b584610d23565b156104f5576040517f08c379a00000000000000000000000000000000000000000000000000000000081526004016104ec90612759565b60405180910390fd5b60008161012001511161053d576040517f08c379a0000000000000000000000000000000000000000000000000000000008152600401610534906127eb565b60405180910390fd5b61054684610a0a565b156105a7573373ffffffffffffffffffffffffffffffffffffffff166108fc826101200151836020015161057a919061283a565b9081150290604051600060405180830381858888f193505050501580156105a5573d6000803e3d6000fd5b505b50505050565b600160009054906101000a900473ffffffffffffffffffffffffffffffffffffffff1673ffffffffffffffffffffffffffffffffffffffff163373ffffffffffffffffffffffffffffffffffffffff161461063d576040517f08c379a0000000000000000000000000000000000000000000000000000000008152600401610634906128dd565b60405180910390fd5b3373ffffffffffffffffffffffffffffffffffffffff166108fc479081150290604051600060405180830381858888f19350505050158015610683573d6000803e3d6000fd5b50565b61068e611d51565b826000805b6004805490508110156106e85782600482815481106106b5576106b46125c4565b5b90600052602060002090600a020160000154036106d557600191506106e8565b80806106e090612622565b915050610693565b5080610729576040517f08c379a0000000000000000000000000000000000000000000000000000000008152600401610720906126c7565b60405180910390fd5b66038d7ea4c680003414610772576040517f08c379a000000000000000000000000000000000000000000000000000000000815260040161076990612949565b60405180910390fd5b60048451146107b6576040517f08c379a00000000000000000000000000000000000000000000000000000000081526004016107ad906129db565b60405180910390fd5b60006107c186611601565b90506107cc86610d23565b61080b576040517f08c379a000000000000000000000000000000000000000000000000000000000815260040161080290612a6d565b60405180910390fd5b8061010001518160e0015111610856576040517f08c379a000000000000000000000000000000000000000000000000000000000815260040161084d90612aff565b60405180910390fd5b61085f86611831565b6000600360003373ffffffffffffffffffffffffffffffffffffffff1673ffffffffffffffffffffffffffffffffffffffff168152602001908152602001600020905060008160000160008981526020019081526020016000209050338160000160006101000a81548173ffffffffffffffffffffffffffffffffffffffff021916908373ffffffffffffffffffffffffffffffffffffffff160217905550878160010181905550610910876118c4565b8160020181905550816001018890806001815401808255809150506001900390600052602060002001600090919091909150553373ffffffffffffffffffffffffffffffffffffffff16887f45a2d3390675537ac2527c0ccc0a41148a7ea28d2b391b8516d9ed81fb2d5eb660405160405180910390a3806040518060600160405290816000820160009054906101000a900473ffffffffffffffffffffffffffffffffffffffff1673ffffffffffffffffffffffffffffffffffffffff1673ffffffffffffffffffffffffffffffffffffffff168152602001600182015481526020016002820154815250509550505050505092915050565b6000816000805b600480549050811015610a66578260048281548110610a3357610a326125c4565b5b90600052602060002090600a02016000015403610a535760019150610a66565b8080610a5e90612622565b915050610a11565b5080610aa7576040517f08c379a0000000000000000000000000000000000000000000000000000000008152600401610a9e906126c7565b60405180910390fd5b6000610ab285611601565b90506000600360003373ffffffffffffffffffffffffffffffffffffffff1673ffffffffffffffffffffffffffffffffffffffff16815260200190815260200160002090506000816000016000888152602001908152602001600020600101541015610b53576040517f08c379a0000000000000000000000000000000000000000000000000000000008152600401610b4a90612b6b565b60405180910390fd5b600115158260a00151151514610b9e576040517f08c379a0000000000000000000000000000000000000000000000000000000008152600401610b9590612bfd565b60405180910390fd5b610bd86040518060600160405280602181526020016132dc602191398260000160008981526020019081526020016000206002015461199e565b610bfe6040518060600160405280602181526020016132bb60219139836080015161199e565b81608001518160000160008881526020019081526020016000206002015414945050505050919050565b610c30611d51565b600360003373ffffffffffffffffffffffffffffffffffffffff1673ffffffffffffffffffffffffffffffffffffffff16815260200190815260200160002060000160008381526020019081526020016000206040518060600160405290816000820160009054906101000a900473ffffffffffffffffffffffffffffffffffffffff1673ffffffffffffffffffffffffffffffffffffffff1673ffffffffffffffffffffffffffffffffffffffff168152602001600182015481526020016002820154815250509050919050565b600080610d0b83611601565b9050806101000151915050919050565b600047905090565b6000816000805b600480549050811015610d7f578260048281548110610d4c57610d4b6125c4565b5b90600052602060002090600a02016000015403610d6c5760019150610d7f565b8080610d7790612622565b915050610d2a565b5080610dc0576040517f08c379a0000000000000000000000000000000000000000000000000000000008152600401610db7906126c7565b60405180910390fd5b6000610dcb85611601565b905042816060015110159350505050919050565b6060600060048054905067ffffffffffffffff811115610e0257610e01611fac565b5b604051908082528060200260200182016040528015610e3b57816020015b610e28611d88565b815260200190600190039081610e205790505b50905060005b600480549050811015611012576040518060c0016040528060048381548110610e6d57610e6c6125c4565b5b90600052602060002090600a020160000154815260200160048381548110610e9857610e976125c4565b5b90600052602060002090600a020160010154815260200160048381548110610ec357610ec26125c4565b5b90600052602060002090600a020160020154815260200160048381548110610eee57610eed6125c4565b5b90600052602060002090600a020160030154815260200160048381548110610f1957610f186125c4565b5b90600052602060002090600a020160070154815260200160048381548110610f4457610f436125c4565b5b90600052602060002090600a02016009018054610f6090612c4c565b80601f0160208091040260200160405190810160405280929190818152602001828054610f8c90612c4c565b8015610fd95780601f10610fae57610100808354040283529160200191610fd9565b820191906000526020600020905b815481529060010190602001808311610fbc57829003601f168201915b5050505050815250828281518110610ff457610ff36125c4565b5b6020026020010181905250808061100a90612622565b915050610e41565b508091505090565b600061271083600081518110611033576110326125c4565b5b60200260200101516110459190612c7d565b6040516020016110559190612ccf565b6040516020818303038152906040528051906020012090506110af6040518060400160405280601681526020017f76726643616c6c6261636b2063616c6c65643a202573000000000000000000008152508260001c61199e565b60005b6004805490508110156111f65782600482815481106110d4576110d36125c4565b5b90600052602060002090600a020160000154036111e35761271084600081518110611102576111016125c4565b5b60200260200101516111149190612c7d565b6040516020016111249190612ccf565b6040516020818303038152906040528051906020012060001c60048281548110611151576111506125c4565b5b90600052602060002090600a0201600401819055506111a46040518060400160405280600d81526020017f68657265202d2d2d2d2d2d2d3e00000000000000000000000000000000000000815250611a3a565b6001600482815481106111ba576111b96125c4565b5b90600052602060002090600a020160050160006101000a81548160ff0219169083151502179055505b80806111ee90612622565b9150506110b2565b50505050565b600160009054906101000a900473ffffffffffffffffffffffffffffffffffffffff1673ffffffffffffffffffffffffffffffffffffffff163373ffffffffffffffffffffffffffffffffffffffff161461128c576040517f08c379a0000000000000000000000000000000000000000000000000000000008152600401611283906128dd565b60405180910390fd5b6112ad60405180606001604052806021815260200161329a60219139611a3a565b6112b681611ad3565b50565b6000816000805b6004805490508110156113155782600482815481106112e2576112e16125c4565b5b90600052602060002090600a020160000154036113025760019150611315565b808061130d90612622565b9150506112c0565b5080611356576040517f08c379a000000000000000000000000000000000000000000000000000000000815260040161134d906126c7565b60405180910390fd5b600061136185611601565b905080602001519350505050919050565b600080670de0b6b3a7640000346113899190612cea565b90506000662386f26fc100009050808210156113da576040517f08c379a00000000000000000000000000000000000000000000000000000000081526004016113d190612d9e565b60405180910390fd5b86861161141c576040517f08c379a000000000000000000000000000000000000000000000000000000000815260040161141390612e30565b60405180910390fd5b60008081548092919061142e90612622565b919050555060006040518061016001604052806000548152602001348152602001898152602001888152602001600081526020016000151581526020013373ffffffffffffffffffffffffffffffffffffffff168152602001878152602001600081526020016000815260200186815250905060048190806001815401808255809150506001900390600052602060002090600a0201600090919091909150600082015181600001556020820151816001015560408201518160020155606082015181600301556080820151816004015560a08201518160050160006101000a81548160ff02191690831515021790555060c08201518160050160016101000a81548173ffffffffffffffffffffffffffffffffffffffff021916908373ffffffffffffffffffffffffffffffffffffffff16021790555060e082015181600601556101008201518160070155610120820151816008015561014082015181600901908161159c9190612ffc565b5050503373ffffffffffffffffffffffffffffffffffffffff166000547f9ab780a1971d1f2d93af01a733af9292e40d145ca56fe587993a6446d76d9bed8a8a6040516115ea9291906130ce565b60405180910390a360019350505050949350505050565b611609611dbe565b611611611dbe565b6116506040518060400160405280601d81526020017f6765744c6f7474657279427949642063616c6c65642c2069643a2025730000008152508461199e565b60005b600480549050811015611827578360048281548110611675576116746125c4565b5b90600052602060002090600a0201600001540361181457600481815481106116a05761169f6125c4565b5b90600052602060002090600a02016040518061016001604052908160008201548152602001600182015481526020016002820154815260200160038201548152602001600482015481526020016005820160009054906101000a900460ff161515151581526020016005820160019054906101000a900473ffffffffffffffffffffffffffffffffffffffff1673ffffffffffffffffffffffffffffffffffffffff1673ffffffffffffffffffffffffffffffffffffffff16815260200160068201548152602001600782015481526020016008820154815260200160098201805461178b90612c4c565b80601f01602080910402602001604051908101604052809291908181526020018280546117b790612c4c565b80156118045780601f106117d957610100808354040283529160200191611804565b820191906000526020600020905b8154815290600101906020018083116117e757829003601f168201915b5050505050815250509150611827565b808061181f90612622565b915050611653565b5080915050919050565b60005b6004805490508110156118c0578160048281548110611856576118556125c4565b5b90600052602060002090600a020160000154036118ad5760048181548110611881576118806125c4565b5b90600052602060002090600a020160070160008154809291906118a390612622565b91905055506118c0565b80806118b890612622565b915050611834565b5050565b60006119056040518060400160405280601581526020017f686173684e756d626572206265666f72653a202573000000000000000000000081525083611c6f565b61196d6040518060400160405280601481526020017f686173684e756d6265722061667465723a2025730000000000000000000000008152508360405160200161194f9190613133565b6040516020818303038152906040528051906020012060001c61199e565b8160405160200161197e9190613133565b6040516020818303038152906040528051906020012060001c9050919050565b611a3682826040516024016119b4929190613183565b6040516020818303038152906040527fb60e72cc000000000000000000000000000000000000000000000000000000007bffffffffffffffffffffffffffffffffffffffffffffffffffffffff19166020820180517bffffffffffffffffffffffffffffffffffffffffffffffffffffffff8381831617835250505050611d0b565b5050565b611ad081604051602401611a4e91906131b3565b6040516020818303038152906040527f41304fac000000000000000000000000000000000000000000000000000000007bffffffffffffffffffffffffffffffffffffffffffffffffffffffff19166020820180517bffffffffffffffffffffffffffffffffffffffffffffffffffffffff8381831617835250505050611d0b565b50565b611b116040518060400160405280601681526020017f67657452616e646f6d4e756d6265722063616c6c656400000000000000000000815250611a3a565b6000600260009054906101000a900473ffffffffffffffffffffffffffffffffffffffff1673ffffffffffffffffffffffffffffffffffffffff166207a12083604051602401611b619190612216565b6040516020818303038152906040527fbc85777c000000000000000000000000000000000000000000000000000000007bffffffffffffffffffffffffffffffffffffffffffffffffffffffff19166020820180517bffffffffffffffffffffffffffffffffffffffffffffffffffffffff8381831617835250505050604051611beb919061321c565b60006040518083038160008787f1925050503d8060008114611c29576040519150601f19603f3d011682016040523d82523d6000602084013e611c2e565b606091505b505090506000151581151503611c6b577f7fd1fb53b42b16a74f31eeae0307a28b4deb45d2362f533590d24697341b3dc960405160405180910390a15b5050565b611d078282604051602401611c85929190613233565b6040516020818303038152906040527f4b5c4277000000000000000000000000000000000000000000000000000000007bffffffffffffffffffffffffffffffffffffffffffffffffffffffff19166020820180517bffffffffffffffffffffffffffffffffffffffffffffffffffffffff8381831617835250505050611d0b565b5050565b611d2281611d1a611d25611d46565b63ffffffff16565b50565b60006a636f6e736f6c652e6c6f679050600080835160208501845afa505050565b611e30819050919050565b6040518060600160405280600073ffffffffffffffffffffffffffffffffffffffff16815260200160008152602001600081525090565b6040518060c001604052806000815260200160008152602001600081526020016000815260200160008152602001606081525090565b6040518061016001604052806000815260200160008152602001600081526020016000815260200160008152602001600015158152602001600073ffffffffffffffffffffffffffffffffffffffff168152602001600081526020016000815260200160008152602001606081525090565b611e3861326a565b565b600081519050919050565b600082825260208201905092915050565b6000819050602082019050919050565b6000819050919050565b611e7981611e66565b82525050565b6000611e8b8383611e70565b60208301905092915050565b6000602082019050919050565b6000611eaf82611e3a565b611eb98185611e45565b9350611ec483611e56565b8060005b83811015611ef5578151611edc8882611e7f565b9750611ee783611e97565b925050600181019050611ec8565b5085935050505092915050565b60006020820190508181036000830152611f1c8184611ea4565b905092915050565b6000604051905090565b600080fd5b600080fd5b611f4181611e66565b8114611f4c57600080fd5b50565b600081359050611f5e81611f38565b92915050565b600060208284031215611f7a57611f79611f2e565b5b6000611f8884828501611f4f565b91505092915050565b600080fd5b600080fd5b6000601f19601f8301169050919050565b7f4e487b7100000000000000000000000000000000000000000000000000000000600052604160045260246000fd5b611fe482611f9b565b810181811067ffffffffffffffff8211171561200357612002611fac565b5b80604052505050565b6000612016611f24565b90506120228282611fdb565b919050565b600067ffffffffffffffff82111561204257612041611fac565b5b61204b82611f9b565b9050602081019050919050565b82818337600083830152505050565b600061207a61207584612027565b61200c565b90508281526020810184848401111561209657612095611f96565b5b6120a1848285612058565b509392505050565b600082601f8301126120be576120bd611f91565b5b81356120ce848260208601612067565b91505092915050565b600080604083850312156120ee576120ed611f2e565b5b60006120fc85828601611f4f565b925050602083013567ffffffffffffffff81111561211d5761211c611f33565b5b612129858286016120a9565b9150509250929050565b600073ffffffffffffffffffffffffffffffffffffffff82169050919050565b600061215e82612133565b9050919050565b61216e81612153565b82525050565b60608201600082015161218a6000850182612165565b50602082015161219d6020850182611e70565b5060408201516121b06040850182611e70565b50505050565b60006060820190506121cb6000830184612174565b92915050565b60008115159050919050565b6121e6816121d1565b82525050565b600060208201905061220160008301846121dd565b92915050565b61221081611e66565b82525050565b600060208201905061222b6000830184612207565b92915050565b600081519050919050565b600082825260208201905092915050565b6000819050602082019050919050565b600081519050919050565b600082825260208201905092915050565b60005b8381101561229757808201518184015260208101905061227c565b60008484015250505050565b60006122ae8261225d565b6122b88185612268565b93506122c8818560208601612279565b6122d181611f9b565b840191505092915050565b600060c0830160008301516122f46000860182611e70565b5060208301516123076020860182611e70565b50604083015161231a6040860182611e70565b50606083015161232d6060860182611e70565b5060808301516123406080860182611e70565b5060a083015184820360a086015261235882826122a3565b9150508091505092915050565b600061237183836122dc565b905092915050565b6000602082019050919050565b600061239182612231565b61239b818561223c565b9350836020820285016123ad8561224d565b8060005b858110156123e957848403895281516123ca8582612365565b94506123d583612379565b925060208a019950506001810190506123b1565b50829750879550505050505092915050565b600060208201905081810360008301526124158184612386565b905092915050565b600067ffffffffffffffff82111561243857612437611fac565b5b602082029050602081019050919050565b600080fd5b600061246161245c8461241d565b61200c565b9050808382526020820190506020840283018581111561248457612483612449565b5b835b818110156124ad57806124998882611f4f565b845260208401935050602081019050612486565b5050509392505050565b600082601f8301126124cc576124cb611f91565b5b81356124dc84826020860161244e565b91505092915050565b600080604083850312156124fc576124fb611f2e565b5b600083013567ffffffffffffffff81111561251a57612519611f33565b5b612526858286016124b7565b925050602061253785828601611f4f565b9150509250929050565b6000806000806080858703121561255b5761255a611f2e565b5b600061256987828801611f4f565b945050602061257a87828801611f4f565b935050604061258b87828801611f4f565b925050606085013567ffffffffffffffff8111156125ac576125ab611f33565b5b6125b8878288016120a9565b91505092959194509250565b7f4e487b7100000000000000000000000000000000000000000000000000000000600052603260045260246000fd5b7f4e487b7100000000000000000000000000000000000000000000000000000000600052601160045260246000fd5b600061262d82611e66565b91507fffffffffffffffffffffffffffffffffffffffffffffffffffffffffffffffff820361265f5761265e6125f3565b5b600182019050919050565b600082825260208201905092915050565b7f4c6f747465727920646f6573206e6f7420657869737400000000000000000000600082015250565b60006126b160168361266a565b91506126bc8261267b565b602082019050919050565b600060208201905081810360008301526126e0816126a4565b9050919050565b7f5769746864726177206f662066756e647320697320616c6c6f7765642061667460008201527f6572206c6f747465727920697320636c6f736564000000000000000000000000602082015250565b600061274360348361266a565b915061274e826126e7565b604082019050919050565b6000602082019050818103600083015261277281612736565b9050919050565b7f546865726520617265206e6f2077696e6e65727320746f2074686973206c6f7460008201527f7465727900000000000000000000000000000000000000000000000000000000602082015250565b60006127d560248361266a565b91506127e082612779565b604082019050919050565b60006020820190508181036000830152612804816127c8565b9050919050565b7f4e487b7100000000000000000000000000000000000000000000000000000000600052601260045260246000fd5b600061284582611e66565b915061285083611e66565b9250826128605761285f61280b565b5b828204905092915050565b7f54686973206f7065726174696f6e20697320616c6c6f776564206f6e6c79206260008201527f79207468652063726561746f72206f662074686520636f6e7472616374000000602082015250565b60006128c7603d8361266a565b91506128d28261286b565b604082019050919050565b600060208201905081810360008301526128f6816128ba565b9050919050565b7f6c6f7474657279207469636b657420636f73747320302e303031206574686572600082015250565b600061293360208361266a565b915061293e826128fd565b602082019050919050565b6000602082019050818103600083015261296281612926565b9050919050565b7f796f752073686f756c6420686176652061206e756d626572207769746820342060008201527f6469676974730000000000000000000000000000000000000000000000000000602082015250565b60006129c560268361266a565b91506129d082612969565b604082019050919050565b600060208201905081810360008301526129f4816129b8565b9050919050565b7f6c6f74746572696573207468617420617265206e6f74206c6976652063616e2760008201527f74206265206a6f696e6564000000000000000000000000000000000000000000602082015250565b6000612a57602b8361266a565b9150612a62826129fb565b604082019050919050565b60006020820190508181036000830152612a8681612a4a565b9050919050565b7f6c696d6974206f66206a6f696e65727320666f722074686973206c6f7474657260008201527f7920776173207265616368656400000000000000000000000000000000000000602082015250565b6000612ae9602d8361266a565b9150612af482612a8d565b604082019050919050565b60006020820190508181036000830152612b1881612adc565b9050919050565b7f7573657220646964206e6f74206a6f696e2074686174206c6f74746572790000600082015250565b6000612b55601e8361266a565b9150612b6082612b1f565b602082019050919050565b60006020820190508181036000830152612b8481612b48565b9050919050565b7f72616e646f6d206e756d62657220776173206e6f7420616464656420746f207460008201527f6865206c6f747465727900000000000000000000000000000000000000000000602082015250565b6000612be7602a8361266a565b9150612bf282612b8b565b604082019050919050565b60006020820190508181036000830152612c1681612bda565b9050919050565b7f4e487b7100000000000000000000000000000000000000000000000000000000600052602260045260246000fd5b60006002820490506001821680612c6457607f821691505b602082108103612c7757612c76612c1d565b5b50919050565b6000612c8882611e66565b9150612c9383611e66565b925082612ca357612ca261280b565b5b828206905092915050565b6000819050919050565b612cc9612cc482611e66565b612cae565b82525050565b6000612cdb8284612cb8565b60208201915081905092915050565b6000612cf582611e66565b9150612d0083611e66565b9250828202612d0e81611e66565b91508282048414831517612d2557612d246125f3565b5b5092915050565b7f76616c75652073686f756c642062652067726561746572207468656e20302e3060008201527f3100000000000000000000000000000000000000000000000000000000000000602082015250565b6000612d8860218361266a565b9150612d9382612d2c565b604082019050919050565b60006020820190508181036000830152612db781612d7b565b9050919050565b7f73746172742074696d652073686f756c6420626520736d616c6c65722074686560008201527f6e20656e642074696d6500000000000000000000000000000000000000000000602082015250565b6000612e1a602a8361266a565b9150612e2582612dbe565b604082019050919050565b60006020820190508181036000830152612e4981612e0d565b9050919050565b60008190508160005260206000209050919050565b60006020601f8301049050919050565b600082821b905092915050565b600060088302612eb27fffffffffffffffffffffffffffffffffffffffffffffffffffffffffffffffff82612e75565b612ebc8683612e75565b95508019841693508086168417925050509392505050565b6000819050919050565b6000612ef9612ef4612eef84611e66565b612ed4565b611e66565b9050919050565b6000819050919050565b612f1383612ede565b612f27612f1f82612f00565b848454612e82565b825550505050565b600090565b612f3c612f2f565b612f47818484612f0a565b505050565b5b81811015612f6b57612f60600082612f34565b600181019050612f4d565b5050565b601f821115612fb057612f8181612e50565b612f8a84612e65565b81016020851015612f99578190505b612fad612fa585612e65565b830182612f4c565b50505b505050565b600082821c905092915050565b6000612fd360001984600802612fb5565b1980831691505092915050565b6000612fec8383612fc2565b9150826002028217905092915050565b6130058261225d565b67ffffffffffffffff81111561301e5761301d611fac565b5b6130288254612c4c565b613033828285612f6f565b600060209050601f8311600181146130665760008415613054578287015190505b61305e8582612fe0565b8655506130c6565b601f19841661307486612e50565b60005b8281101561309c57848901518255600182019150602085019450602081019050613077565b868310156130b957848901516130b5601f891682612fc2565b8355505b6001600288020188555050505b505050505050565b60006040820190506130e36000830185612207565b6130f06020830184612207565b9392505050565b600081905092915050565b600061310d8261225d565b61311781856130f7565b9350613127818560208601612279565b80840191505092915050565b600061313f8284613102565b915081905092915050565b60006131558261225d565b61315f818561266a565b935061316f818560208601612279565b61317881611f9b565b840191505092915050565b6000604082019050818103600083015261319d818561314a565b90506131ac6020830184612207565b9392505050565b600060208201905081810360008301526131cd818461314a565b905092915050565b600081519050919050565b600081905092915050565b60006131f6826131d5565b61320081856131e0565b9350613210818560208601612279565b80840191505092915050565b600061322882846131eb565b915081905092915050565b6000604082019050818103600083015261324d818561314a565b90508181036020830152613261818461314a565b90509392505050565b7f4e487b7100000000000000000000000000000000000000000000000000000000600052605160045260246000fdfe67657457696e6e696e674e756d626572466f724c6f74746572792063616c6c6564636865636b496649576f6e5468654c6f74746572792063616c6c6564323a202573636865636b496649576f6e5468654c6f74746572792063616c6c6564313a202573a2646970667358221220b057654dac19a6e6dfe0ec0753547785a1a9ee91954c7758290468686fbe566f64736f6c63430008140033",
  "linkReferences": {},
  "deployedLinkReferences": {}
}