{
  "_format": "hh-sol-artifact-1",
  "contractName": "Lottery",
  "sourceName": "contracts/Lottery.sol",
  "abi": [
    {
      "inputs": [],
      "stateMutability": "payable",
      "type": "constructor"
    },
    {
      "inputs": [
        {
          "internalType": "uint256",
          "name": "lotteryId",
          "type": "uint256"
        }
      ],
      "name": "checkIfIWonTheLottery",
      "outputs": [
        {
          "internalType": "bool",
          "name": "",
          "type": "bool"
        }
      ],
      "stateMutability": "view",
      "type": "function"
    },
    {
      "inputs": [
        {
          "internalType": "uint256",
          "name": "lotteryId",
          "type": "uint256"
        }
      ],
      "name": "checkIfLotteryIsLiveById",
      "outputs": [
        {
          "internalType": "bool",
          "name": "",
          "type": "bool"
        }
      ],
      "stateMutability": "view",
      "type": "function"
    },
    {
      "inputs": [
        {
          "internalType": "uint256",
          "name": "lotteryId",
          "type": "uint256"
        }
      ],
      "name": "checkLotteryPrize",
      "outputs": [
        {
          "internalType": "uint256",
          "name": "",
          "type": "uint256"
        }
      ],
      "stateMutability": "view",
      "type": "function"
    },
    {
      "inputs": [
        {
          "internalType": "uint256",
          "name": "startTimeInSeconds",
          "type": "uint256"
        },
        {
          "internalType": "uint256",
          "name": "endTimeInSeconds",
          "type": "uint256"
        },
        {
          "internalType": "uint256[]",
          "name": "winingNumbers",
          "type": "uint256[]"
        },
        {
          "internalType": "uint256",
          "name": "limitOfJoiners",
          "type": "uint256"
        },
        {
          "internalType": "string",
          "name": "chainType",
          "type": "string"
        }
      ],
      "name": "createNewLottery",
      "outputs": [
        {
          "internalType": "bool",
          "name": "",
          "type": "bool"
        }
      ],
      "stateMutability": "payable",
      "type": "function"
    },
    {
      "inputs": [],
      "name": "getAllFunds",
      "outputs": [],
      "stateMutability": "payable",
      "type": "function"
    },
    {
      "inputs": [],
      "name": "getContractBalance",
      "outputs": [
        {
          "internalType": "uint256",
          "name": "",
          "type": "uint256"
        }
      ],
      "stateMutability": "view",
      "type": "function"
    },
    {
      "inputs": [],
      "name": "getLotteries",
      "outputs": [
        {
          "components": [
            {
              "internalType": "uint256",
              "name": "id",
              "type": "uint256"
            },
            {
              "internalType": "uint256",
              "name": "winningPrize",
              "type": "uint256"
            },
            {
              "internalType": "uint256",
              "name": "startTime",
              "type": "uint256"
            },
            {
              "internalType": "uint256",
              "name": "closeTime",
              "type": "uint256"
            },
            {
              "internalType": "uint256",
              "name": "joinedCounter",
              "type": "uint256"
            },
            {
              "internalType": "string",
              "name": "chainType",
              "type": "string"
            }
          ],
          "internalType": "struct Lottery.LottryContestLite[]",
          "name": "",
          "type": "tuple[]"
        }
      ],
      "stateMutability": "view",
      "type": "function"
    },
    {
      "inputs": [
        {
          "internalType": "uint256",
          "name": "lotteryId",
          "type": "uint256"
        }
      ],
      "name": "getLotteryPrize",
      "outputs": [],
      "stateMutability": "payable",
      "type": "function"
    },
    {
      "inputs": [
        {
          "internalType": "uint256",
          "name": "lotteryId",
          "type": "uint256"
        }
      ],
      "name": "getNumberOfJoinersForLotteryId",
      "outputs": [
        {
          "internalType": "uint256",
          "name": "",
          "type": "uint256"
        }
      ],
      "stateMutability": "view",
      "type": "function"
    },
    {
      "inputs": [
        {
          "internalType": "uint256",
          "name": "lotteryId",
          "type": "uint256"
        }
      ],
      "name": "getUserTicketForLottery",
      "outputs": [
        {
          "components": [
            {
              "internalType": "address",
              "name": "owner",
              "type": "address"
            },
            {
              "internalType": "uint256",
              "name": "lotteryId",
              "type": "uint256"
            },
            {
              "internalType": "uint256[]",
              "name": "numbers",
              "type": "uint256[]"
            }
          ],
          "internalType": "struct Lottery.LotteryTicket",
          "name": "",
          "type": "tuple"
        }
      ],
      "stateMutability": "view",
      "type": "function"
    },
    {
      "inputs": [],
      "name": "getUserTickets",
      "outputs": [
        {
          "internalType": "uint256[]",
          "name": "",
          "type": "uint256[]"
        }
      ],
      "stateMutability": "view",
      "type": "function"
    },
    {
      "inputs": [
        {
          "internalType": "uint256",
          "name": "lotteryId",
          "type": "uint256"
        },
        {
          "internalType": "uint256[]",
          "name": "numbers",
          "type": "uint256[]"
        }
      ],
      "name": "joinLottery",
      "outputs": [
        {
          "components": [
            {
              "internalType": "address",
              "name": "owner",
              "type": "address"
            },
            {
              "internalType": "uint256",
              "name": "lotteryId",
              "type": "uint256"
            },
            {
              "internalType": "uint256[]",
              "name": "numbers",
              "type": "uint256[]"
            }
          ],
          "internalType": "struct Lottery.LotteryTicket",
          "name": "",
          "type": "tuple"
        }
      ],
      "stateMutability": "payable",
      "type": "function"
    }
  ],
  "bytecode": "0x6080604052600160005533600160006101000a81548173ffffffffffffffffffffffffffffffffffffffff021916908373ffffffffffffffffffffffffffffffffffffffff160217905550612a74806100596000396000f3fe6080604052600436106100a75760003560e01c80634b47195d116100645780634b47195d146101a75780636f9fb98a146101e457806389c6fc0b1461020f578063bcc82ec41461024c578063f33ce32514610277578063ff7609ea146102b4576100a7565b8063093c69ae146100ac5780631923f7fe146100d75780631c69b464146100f35780632ce9a5d2146100fd5780633063bcd31461013a5780633ebf705014610177575b600080fd5b3480156100b857600080fd5b506100c16102e4565b6040516100ce91906118ad565b60405180910390f35b6100f160048036038101906100ec919061190f565b61037c565b005b6100fb610525565b005b34801561010957600080fd5b50610124600480360381019061011f919061190f565b6105fe565b6040516101319190611957565b60405180910390f35b34801561014657600080fd5b50610161600480360381019061015c919061190f565b6107d3565b60405161016e9190611a72565b60405180910390f35b610191600480360381019061018c9190611bed565b6108f8565b60405161019e9190611a72565b60405180910390f35b3480156101b357600080fd5b506101ce60048036038101906101c9919061190f565b610d2d565b6040516101db9190611c58565b60405180910390f35b3480156101f057600080fd5b506101f9610d48565b6040516102069190611c58565b60405180910390f35b34801561021b57600080fd5b506102366004803603810190610231919061190f565b610d50565b6040516102439190611957565b60405180910390f35b34801561025857600080fd5b50610261610e0c565b60405161026e9190611e3d565b60405180910390f35b34801561028357600080fd5b5061029e6004803603810190610299919061190f565b611047565b6040516102ab9190611c58565b60405180910390f35b6102ce60048036038101906102c99190611f14565b611100565b6040516102db9190611957565b60405180910390f35b6060600260003373ffffffffffffffffffffffffffffffffffffffff1673ffffffffffffffffffffffffffffffffffffffff16815260200190815260200160002060010180548060200260200160405190810160405280929190818152602001828054801561037257602002820191906000526020600020905b81548152602001906001019080831161035e575b5050505050905090565b806000805b6003805490508110156103d65782600382815481106103a3576103a2611fc7565b5b90600052602060002090600a020160000154036103c357600191506103d6565b80806103ce90612025565b915050610381565b5080610417576040517f08c379a000000000000000000000000000000000000000000000000000000000815260040161040e906120ca565b60405180910390fd5b60006104228461136a565b905061042d84610d50565b1561046d576040517f08c379a00000000000000000000000000000000000000000000000000000000081526004016104649061215c565b60405180910390fd5b6000816101000151116104b5576040517f08c379a00000000000000000000000000000000000000000000000000000000081526004016104ac906121ee565b60405180910390fd5b6104be846105fe565b1561051f573373ffffffffffffffffffffffffffffffffffffffff166108fc82610100015183602001516104f2919061223d565b9081150290604051600060405180830381858888f1935050505015801561051d573d6000803e3d6000fd5b505b50505050565b600160009054906101000a900473ffffffffffffffffffffffffffffffffffffffff1673ffffffffffffffffffffffffffffffffffffffff163373ffffffffffffffffffffffffffffffffffffffff16146105b5576040517f08c379a00000000000000000000000000000000000000000000000000000000081526004016105ac906122e0565b60405180910390fd5b3373ffffffffffffffffffffffffffffffffffffffff166108fc479081150290604051600060405180830381858888f193505050501580156105fb573d6000803e3d6000fd5b50565b6000816000805b60038054905081101561065a57826003828154811061062757610626611fc7565b5b90600052602060002090600a02016000015403610647576001915061065a565b808061065290612025565b915050610605565b508061069b576040517f08c379a0000000000000000000000000000000000000000000000000000000008152600401610692906120ca565b60405180910390fd5b6000806106a78661136a565b90506000600260003373ffffffffffffffffffffffffffffffffffffffff1673ffffffffffffffffffffffffffffffffffffffff16815260200190815260200160002090506000816000016000898152602001908152602001600020600101541015610748576040517f08c379a000000000000000000000000000000000000000000000000000000000815260040161073f9061234c565b60405180910390fd5b6107bc8160000160008981526020019081526020016000206002018054806020026020016040519081016040528092919081815260200182805480156107ad57602002820191906000526020600020905b815481526020019060010190808311610799575b5050505050836080015161158e565b156107c657600192505b8295505050505050919050565b6107db6116a5565b600260003373ffffffffffffffffffffffffffffffffffffffff1673ffffffffffffffffffffffffffffffffffffffff16815260200190815260200160002060000160008381526020019081526020016000206040518060600160405290816000820160009054906101000a900473ffffffffffffffffffffffffffffffffffffffff1673ffffffffffffffffffffffffffffffffffffffff1673ffffffffffffffffffffffffffffffffffffffff16815260200160018201548152602001600282018054806020026020016040519081016040528092919081815260200182805480156108e857602002820191906000526020600020905b8154815260200190600101908083116108d4575b5050505050815250509050919050565b6109006116a5565b826000805b60038054905081101561095a57826003828154811061092757610926611fc7565b5b90600052602060002090600a02016000015403610947576001915061095a565b808061095290612025565b915050610905565b508061099b576040517f08c379a0000000000000000000000000000000000000000000000000000000008152600401610992906120ca565b60405180910390fd5b66038d7ea4c6800034146109e4576040517f08c379a00000000000000000000000000000000000000000000000000000000081526004016109db906123b8565b60405180910390fd5b6004845114610a28576040517f08c379a0000000000000000000000000000000000000000000000000000000008152600401610a1f90612424565b60405180910390fd5b6000610a338661136a565b9050610a3e86610d50565b610a7d576040517f08c379a0000000000000000000000000000000000000000000000000000000008152600401610a74906124b6565b60405180910390fd5b8060e001518160c0015111610ac7576040517f08c379a0000000000000000000000000000000000000000000000000000000008152600401610abe90612548565b60405180910390fd5b610ad086611612565b610ade85826080015161158e565b15610b705760005b600380549050811015610b6e578660038281548110610b0857610b07611fc7565b5b90600052602060002090600a02016000015403610b5b5760038181548110610b3357610b32611fc7565b5b90600052602060002090600a02016008016000815480929190610b5590612025565b91905055505b8080610b6690612025565b915050610ae6565b505b6000600260003373ffffffffffffffffffffffffffffffffffffffff1673ffffffffffffffffffffffffffffffffffffffff168152602001908152602001600020905060008160000160008981526020019081526020016000209050338160000160006101000a81548173ffffffffffffffffffffffffffffffffffffffff021916908373ffffffffffffffffffffffffffffffffffffffff16021790555087816001018190555086816002019080519060200190610c309291906116dc565b5081600101889080600181540180825580915050600190039060005260206000200160009091909190915055806040518060600160405290816000820160009054906101000a900473ffffffffffffffffffffffffffffffffffffffff1673ffffffffffffffffffffffffffffffffffffffff1673ffffffffffffffffffffffffffffffffffffffff1681526020016001820154815260200160028201805480602002602001604051908101604052809291908181526020018280548015610d1757602002820191906000526020600020905b815481526020019060010190808311610d03575b5050505050815250509550505050505092915050565b600080610d398361136a565b90508060e00151915050919050565b600047905090565b6000816000805b600380549050811015610dac578260038281548110610d7957610d78611fc7565b5b90600052602060002090600a02016000015403610d995760019150610dac565b8080610da490612025565b915050610d57565b5080610ded576040517f08c379a0000000000000000000000000000000000000000000000000000000008152600401610de4906120ca565b60405180910390fd5b6000610df88561136a565b905042816060015110159350505050919050565b6060600060038054905067ffffffffffffffff811115610e2f57610e2e611aaa565b5b604051908082528060200260200182016040528015610e6857816020015b610e55611729565b815260200190600190039081610e4d5790505b50905060005b60038054905081101561103f576040518060c0016040528060038381548110610e9a57610e99611fc7565b5b90600052602060002090600a020160000154815260200160038381548110610ec557610ec4611fc7565b5b90600052602060002090600a020160010154815260200160038381548110610ef057610eef611fc7565b5b90600052602060002090600a020160020154815260200160038381548110610f1b57610f1a611fc7565b5b90600052602060002090600a020160030154815260200160038381548110610f4657610f45611fc7565b5b90600052602060002090600a020160070154815260200160038381548110610f7157610f70611fc7565b5b90600052602060002090600a02016009018054610f8d90612597565b80601f0160208091040260200160405190810160405280929190818152602001828054610fb990612597565b80156110065780601f10610fdb57610100808354040283529160200191611006565b820191906000526020600020905b815481529060010190602001808311610fe957829003601f168201915b505050505081525082828151811061102157611020611fc7565b5b6020026020010181905250808061103790612025565b915050610e6e565b508091505090565b6000816000805b6003805490508110156110a35782600382815481106110705761106f611fc7565b5b90600052602060002090600a0201600001540361109057600191506110a3565b808061109b90612025565b91505061104e565b50806110e4576040517f08c379a00000000000000000000000000000000000000000000000000000000081526004016110db906120ca565b60405180910390fd5b60006110ef8561136a565b905080602001519350505050919050565b60006004845114611146576040517f08c379a000000000000000000000000000000000000000000000000000000000815260040161113d9061263a565b60405180910390fd5b6000670de0b6b3a76400003461115c919061265a565b90506000662386f26fc100009050808210156111ad576040517f08c379a00000000000000000000000000000000000000000000000000000000081526004016111a49061270e565b60405180910390fd5b8787116111ef576040517f08c379a00000000000000000000000000000000000000000000000000000000081526004016111e6906127a0565b60405180910390fd5b600060405180610140016040528060005481526020013481526020018a81526020018981526020018881526020013373ffffffffffffffffffffffffffffffffffffffff168152602001878152602001600081526020016000815260200186815250905060038190806001815401808255809150506001900390600052602060002090600a02016000909190919091506000820151816000015560208201518160010155604082015181600201556060820151816003015560808201518160040190805190602001906112c39291906116dc565b5060a08201518160050160006101000a81548173ffffffffffffffffffffffffffffffffffffffff021916908373ffffffffffffffffffffffffffffffffffffffff16021790555060c0820151816006015560e082015181600701556101008201518160080155610120820151816009019081611340919061296c565b50505060008081548092919061135590612025565b91905055506001935050505095945050505050565b61137261175f565b61137a61175f565b60005b60038054905081101561158457836003828154811061139f5761139e611fc7565b5b90600052602060002090600a0201600001540361157157600381815481106113ca576113c9611fc7565b5b90600052602060002090600a020160405180610140016040529081600082015481526020016001820154815260200160028201548152602001600382015481526020016004820180548060200260200160405190810160405280929190818152602001828054801561145b57602002820191906000526020600020905b815481526020019060010190808311611447575b505050505081526020016005820160009054906101000a900473ffffffffffffffffffffffffffffffffffffffff1673ffffffffffffffffffffffffffffffffffffffff1673ffffffffffffffffffffffffffffffffffffffff1681526020016006820154815260200160078201548152602001600882015481526020016009820180546114e890612597565b80601f016020809104026020016040519081016040528092919081815260200182805461151490612597565b80156115615780601f1061153657610100808354040283529160200191611561565b820191906000526020600020905b81548152906001019060200180831161154457829003601f168201915b5050505050815250509150611584565b808061157c90612025565b91505061137d565b5080915050919050565b600081518351146115a2576000905061160c565b60005b8351811015611606578281815181106115c1576115c0611fc7565b5b60200260200101518482815181106115dc576115db611fc7565b5b6020026020010151146115f357600091505061160c565b80806115fe90612025565b9150506115a5565b50600190505b92915050565b60005b6003805490508110156116a157816003828154811061163757611636611fc7565b5b90600052602060002090600a0201600001540361168e576003818154811061166257611661611fc7565b5b90600052602060002090600a0201600701600081548092919061168490612025565b91905055506116a1565b808061169990612025565b915050611615565b5050565b6040518060600160405280600073ffffffffffffffffffffffffffffffffffffffff16815260200160008152602001606081525090565b828054828255906000526020600020908101928215611718579160200282015b828111156117175782518255916020019190600101906116fc565b5b50905061172591906117c8565b5090565b6040518060c001604052806000815260200160008152602001600081526020016000815260200160008152602001606081525090565b6040518061014001604052806000815260200160008152602001600081526020016000815260200160608152602001600073ffffffffffffffffffffffffffffffffffffffff168152602001600081526020016000815260200160008152602001606081525090565b5b808211156117e15760008160009055506001016117c9565b5090565b600081519050919050565b600082825260208201905092915050565b6000819050602082019050919050565b6000819050919050565b61182481611811565b82525050565b6000611836838361181b565b60208301905092915050565b6000602082019050919050565b600061185a826117e5565b61186481856117f0565b935061186f83611801565b8060005b838110156118a0578151611887888261182a565b975061189283611842565b925050600181019050611873565b5085935050505092915050565b600060208201905081810360008301526118c7818461184f565b905092915050565b6000604051905090565b600080fd5b600080fd5b6118ec81611811565b81146118f757600080fd5b50565b600081359050611909816118e3565b92915050565b600060208284031215611925576119246118d9565b5b6000611933848285016118fa565b91505092915050565b60008115159050919050565b6119518161193c565b82525050565b600060208201905061196c6000830184611948565b92915050565b600073ffffffffffffffffffffffffffffffffffffffff82169050919050565b600061199d82611972565b9050919050565b6119ad81611992565b82525050565b600082825260208201905092915050565b60006119cf826117e5565b6119d981856119b3565b93506119e483611801565b8060005b83811015611a155781516119fc888261182a565b9750611a0783611842565b9250506001810190506119e8565b5085935050505092915050565b6000606083016000830151611a3a60008601826119a4565b506020830151611a4d602086018261181b565b5060408301518482036040860152611a6582826119c4565b9150508091505092915050565b60006020820190508181036000830152611a8c8184611a22565b905092915050565b600080fd5b6000601f19601f8301169050919050565b7f4e487b7100000000000000000000000000000000000000000000000000000000600052604160045260246000fd5b611ae282611a99565b810181811067ffffffffffffffff82111715611b0157611b00611aaa565b5b80604052505050565b6000611b146118cf565b9050611b208282611ad9565b919050565b600067ffffffffffffffff821115611b4057611b3f611aaa565b5b602082029050602081019050919050565b600080fd5b6000611b69611b6484611b25565b611b0a565b90508083825260208201905060208402830185811115611b8c57611b8b611b51565b5b835b81811015611bb55780611ba188826118fa565b845260208401935050602081019050611b8e565b5050509392505050565b600082601f830112611bd457611bd3611a94565b5b8135611be4848260208601611b56565b91505092915050565b60008060408385031215611c0457611c036118d9565b5b6000611c12858286016118fa565b925050602083013567ffffffffffffffff811115611c3357611c326118de565b5b611c3f85828601611bbf565b9150509250929050565b611c5281611811565b82525050565b6000602082019050611c6d6000830184611c49565b92915050565b600081519050919050565b600082825260208201905092915050565b6000819050602082019050919050565b600081519050919050565b600082825260208201905092915050565b60005b83811015611cd9578082015181840152602081019050611cbe565b60008484015250505050565b6000611cf082611c9f565b611cfa8185611caa565b9350611d0a818560208601611cbb565b611d1381611a99565b840191505092915050565b600060c083016000830151611d36600086018261181b565b506020830151611d49602086018261181b565b506040830151611d5c604086018261181b565b506060830151611d6f606086018261181b565b506080830151611d82608086018261181b565b5060a083015184820360a0860152611d9a8282611ce5565b9150508091505092915050565b6000611db38383611d1e565b905092915050565b6000602082019050919050565b6000611dd382611c73565b611ddd8185611c7e565b935083602082028501611def85611c8f565b8060005b85811015611e2b5784840389528151611e0c8582611da7565b9450611e1783611dbb565b925060208a01995050600181019050611df3565b50829750879550505050505092915050565b60006020820190508181036000830152611e578184611dc8565b905092915050565b600080fd5b600067ffffffffffffffff821115611e7f57611e7e611aaa565b5b611e8882611a99565b9050602081019050919050565b82818337600083830152505050565b6000611eb7611eb284611e64565b611b0a565b905082815260208101848484011115611ed357611ed2611e5f565b5b611ede848285611e95565b509392505050565b600082601f830112611efb57611efa611a94565b5b8135611f0b848260208601611ea4565b91505092915050565b600080600080600060a08688031215611f3057611f2f6118d9565b5b6000611f3e888289016118fa565b9550506020611f4f888289016118fa565b945050604086013567ffffffffffffffff811115611f7057611f6f6118de565b5b611f7c88828901611bbf565b9350506060611f8d888289016118fa565b925050608086013567ffffffffffffffff811115611fae57611fad6118de565b5b611fba88828901611ee6565b9150509295509295909350565b7f4e487b7100000000000000000000000000000000000000000000000000000000600052603260045260246000fd5b7f4e487b7100000000000000000000000000000000000000000000000000000000600052601160045260246000fd5b600061203082611811565b91507fffffffffffffffffffffffffffffffffffffffffffffffffffffffffffffffff820361206257612061611ff6565b5b600182019050919050565b600082825260208201905092915050565b7f4c6f747465727920646f6573206e6f7420657869737400000000000000000000600082015250565b60006120b460168361206d565b91506120bf8261207e565b602082019050919050565b600060208201905081810360008301526120e3816120a7565b9050919050565b7f5769746864726177206f662066756e647320697320616c6c6f7765642061667460008201527f6572206c6f747465727920697320636c6f736564000000000000000000000000602082015250565b600061214660348361206d565b9150612151826120ea565b604082019050919050565b6000602082019050818103600083015261217581612139565b9050919050565b7f546865726520617265206e6f2077696e6e65727320746f2074686973206c6f7460008201527f7465727900000000000000000000000000000000000000000000000000000000602082015250565b60006121d860248361206d565b91506121e38261217c565b604082019050919050565b60006020820190508181036000830152612207816121cb565b9050919050565b7f4e487b7100000000000000000000000000000000000000000000000000000000600052601260045260246000fd5b600061224882611811565b915061225383611811565b9250826122635761226261220e565b5b828204905092915050565b7f54686973206f7065726174696f6e20697320616c6c6f776564206f6e6c79206260008201527f79207468652063726561746f72206f662074686520636f6e7472616374000000602082015250565b60006122ca603d8361206d565b91506122d58261226e565b604082019050919050565b600060208201905081810360008301526122f9816122bd565b9050919050565b7f7573657220646964206e6f74206a6f696e2074686174206c6f74746572790000600082015250565b6000612336601e8361206d565b915061234182612300565b602082019050919050565b6000602082019050818103600083015261236581612329565b9050919050565b7f6c6f7474657279207469636b657420636f73747320302e303031206574686572600082015250565b60006123a260208361206d565b91506123ad8261236c565b602082019050919050565b600060208201905081810360008301526123d181612395565b9050919050565b7f796f752073686f756c6420686176652034206e756d6265727300000000000000600082015250565b600061240e60198361206d565b9150612419826123d8565b602082019050919050565b6000602082019050818103600083015261243d81612401565b9050919050565b7f6c6f74746572696573207468617420617265206e6f74206c6976652063616e2760008201527f74206265206a6f696e6564000000000000000000000000000000000000000000602082015250565b60006124a0602b8361206d565b91506124ab82612444565b604082019050919050565b600060208201905081810360008301526124cf81612493565b9050919050565b7f6c696d6974206f66206a6f696e65727320666f722074686973206c6f7474657260008201527f7920776173207265616368656400000000000000000000000000000000000000602082015250565b6000612532602d8361206d565b915061253d826124d6565b604082019050919050565b6000602082019050818103600083015261256181612525565b9050919050565b7f4e487b7100000000000000000000000000000000000000000000000000000000600052602260045260246000fd5b600060028204905060018216806125af57607f821691505b6020821081036125c2576125c1612568565b5b50919050565b7f77696e6e696e67206e756d626572206c656e6774682073686f756c642062652060008201527f3400000000000000000000000000000000000000000000000000000000000000602082015250565b600061262460218361206d565b915061262f826125c8565b604082019050919050565b6000602082019050818103600083015261265381612617565b9050919050565b600061266582611811565b915061267083611811565b925082820261267e81611811565b9150828204841483151761269557612694611ff6565b5b5092915050565b7f76616c75652073686f756c642062652067726561746572207468656e20302e3060008201527f3100000000000000000000000000000000000000000000000000000000000000602082015250565b60006126f860218361206d565b91506127038261269c565b604082019050919050565b60006020820190508181036000830152612727816126eb565b9050919050565b7f73746172742074696d652073686f756c6420626520736d616c6c65722074686560008201527f6e20656e642074696d6500000000000000000000000000000000000000000000602082015250565b600061278a602a8361206d565b91506127958261272e565b604082019050919050565b600060208201905081810360008301526127b98161277d565b9050919050565b60008190508160005260206000209050919050565b60006020601f8301049050919050565b600082821b905092915050565b6000600883026128227fffffffffffffffffffffffffffffffffffffffffffffffffffffffffffffffff826127e5565b61282c86836127e5565b95508019841693508086168417925050509392505050565b6000819050919050565b600061286961286461285f84611811565b612844565b611811565b9050919050565b6000819050919050565b6128838361284e565b61289761288f82612870565b8484546127f2565b825550505050565b600090565b6128ac61289f565b6128b781848461287a565b505050565b5b818110156128db576128d06000826128a4565b6001810190506128bd565b5050565b601f821115612920576128f1816127c0565b6128fa846127d5565b81016020851015612909578190505b61291d612915856127d5565b8301826128bc565b50505b505050565b600082821c905092915050565b600061294360001984600802612925565b1980831691505092915050565b600061295c8383612932565b9150826002028217905092915050565b61297582611c9f565b67ffffffffffffffff81111561298e5761298d611aaa565b5b6129988254612597565b6129a38282856128df565b600060209050601f8311600181146129d657600084156129c4578287015190505b6129ce8582612950565b865550612a36565b601f1984166129e4866127c0565b60005b82811015612a0c578489015182556001820191506020850194506020810190506129e7565b86831015612a295784890151612a25601f891682612932565b8355505b6001600288020188555050505b50505050505056fea264697066735822122047bbd3d950e2d4fb27496ea9263dfae2c865147a552dcef58cc62e4f8fdeaff564736f6c63430008140033",
  "linkReferences": {},
  "deployedLinkReferences": {}
}